{
  "contractName": "AirDrop",
  "abi": [
    {
      "inputs": [
        {
          "internalType": "address",
          "name": "token_",
          "type": "address"
        }
      ],
      "stateMutability": "nonpayable",
      "type": "constructor"
    },
    {
      "inputs": [],
      "name": "DROP_HASH",
      "outputs": [
        {
          "internalType": "bytes32",
          "name": "",
          "type": "bytes32"
        }
      ],
      "stateMutability": "view",
      "type": "function"
    },
    {
      "inputs": [
        {
          "internalType": "address",
          "name": "",
          "type": "address"
        }
      ],
      "name": "balanceOfEther",
      "outputs": [
        {
          "internalType": "uint256",
          "name": "",
          "type": "uint256"
        }
      ],
      "stateMutability": "view",
      "type": "function"
    },
    {
      "inputs": [
        {
          "internalType": "address",
          "name": "",
          "type": "address"
        }
      ],
      "name": "balanceOfTokens",
      "outputs": [
        {
          "internalType": "uint256",
          "name": "",
          "type": "uint256"
        }
      ],
      "stateMutability": "view",
      "type": "function"
    },
    {
      "inputs": [
        {
          "internalType": "uint256",
          "name": "amount_",
          "type": "uint256"
        }
      ],
      "name": "depositTokens",
      "outputs": [],
      "stateMutability": "nonpayable",
      "type": "function"
    },
    {
      "inputs": [],
      "name": "depositEther",
      "outputs": [
        {
          "internalType": "uint256",
          "name": "",
          "type": "uint256"
        }
      ],
      "stateMutability": "payable",
      "type": "function"
    },
    {
      "inputs": [
        {
          "internalType": "address",
          "name": "recepients_",
          "type": "address"
        },
        {
          "internalType": "uint256",
          "name": "amount_",
          "type": "uint256"
        },
        {
          "internalType": "uint256",
          "name": "deadline_",
          "type": "uint256"
        },
        {
          "internalType": "uint8",
          "name": "v",
          "type": "uint8"
        },
        {
          "internalType": "bytes32",
          "name": "r",
          "type": "bytes32"
        },
        {
          "internalType": "bytes32",
          "name": "s",
          "type": "bytes32"
        }
      ],
      "name": "dropTokens",
      "outputs": [],
      "stateMutability": "nonpayable",
      "type": "function"
    },
    {
      "inputs": [
        {
          "internalType": "address",
          "name": "recepients_",
          "type": "address"
        },
        {
          "internalType": "uint256",
          "name": "amount_",
          "type": "uint256"
        },
        {
          "internalType": "uint256",
          "name": "deadline_",
          "type": "uint256"
        },
        {
          "internalType": "uint8",
          "name": "v",
          "type": "uint8"
        },
        {
          "internalType": "bytes32",
          "name": "r",
          "type": "bytes32"
        },
        {
          "internalType": "bytes32",
          "name": "s",
          "type": "bytes32"
        }
      ],
      "name": "dropEther",
      "outputs": [],
      "stateMutability": "nonpayable",
      "type": "function"
    },
    {
      "inputs": [
        {
          "internalType": "address",
          "name": "token_",
          "type": "address"
        }
      ],
      "name": "updateTokenAddress",
      "outputs": [],
      "stateMutability": "nonpayable",
      "type": "function"
    },
    {
      "inputs": [],
      "name": "withdrawTokens",
      "outputs": [],
      "stateMutability": "nonpayable",
      "type": "function"
    },
    {
      "inputs": [],
      "name": "withdrawEther",
      "outputs": [],
      "stateMutability": "nonpayable",
      "type": "function"
    },
    {
      "inputs": [],
      "name": "claimToken",
      "outputs": [],
      "stateMutability": "nonpayable",
      "type": "function"
    },
    {
      "inputs": [],
      "name": "claimEther",
      "outputs": [],
      "stateMutability": "nonpayable",
      "type": "function"
    }
  ],
  "bytecode": "0x6101406040523480156200001257600080fd5b50604051620021d7380380620021d7833981810160405281019062000038919062000235565b6040518060400160405280600781526020017f41697244726f70000000000000000000000000000000000000000000000000008152506040518060400160405280600181526020017f330000000000000000000000000000000000000000000000000000000000000081525060008280519060200120905060008280519060200120905060007f8b73c3c69bb8fe3d512ecc4cf759cc79239f7b179b0ffacaa9a75d522b39400f90508260e081815250508161010081815250504660a081815250506200010d818484620001e260201b60201c565b608081815250503073ffffffffffffffffffffffffffffffffffffffff1660c08173ffffffffffffffffffffffffffffffffffffffff1660601b81525050806101208181525050505050505080600360006101000a81548173ffffffffffffffffffffffffffffffffffffffff021916908373ffffffffffffffffffffffffffffffffffffffff16021790555033600260006101000a81548173ffffffffffffffffffffffffffffffffffffffff021916908373ffffffffffffffffffffffffffffffffffffffff160217905550506200035e565b60008383834630604051602001620001ff9594939291906200029a565b6040516020818303038152906040528051906020012090509392505050565b6000815190506200022f8162000344565b92915050565b6000602082840312156200024e576200024d6200033f565b5b60006200025e848285016200021e565b91505092915050565b6200027281620002f7565b82525050565b62000283816200030b565b82525050565b620002948162000335565b82525050565b600060a082019050620002b1600083018862000278565b620002c0602083018762000278565b620002cf604083018662000278565b620002de606083018562000289565b620002ed608083018462000267565b9695505050505050565b6000620003048262000315565b9050919050565b6000819050919050565b600073ffffffffffffffffffffffffffffffffffffffff82169050919050565b6000819050919050565b600080fd5b6200034f81620002f7565b81146200035b57600080fd5b50565b60805160a05160c05160601c60e0516101005161012051611e26620003b160003960006110a4015260006110e6015260006110c501526000610ffa01526000611050015260006110790152611e266000f3fe6080604052600436106100a75760003560e01c80638d8f2adb116100645780638d8f2adb1461019457806398ea5fca146101ab578063c111ffce146101c9578063c7772318146101f2578063dd49756e1461021d578063eb971b4914610246576100a7565b806321114904146100ac5780632ff57da8146100e95780634451d89f1461012657806355291dbd1461013d5780636691461a146101545780637362377b1461017d575b600080fd5b3480156100b857600080fd5b506100d360048036038101906100ce91906114dd565b61026f565b6040516100e091906119dc565b60405180910390f35b3480156100f557600080fd5b50610110600480360381019061010b91906114dd565b610287565b60405161011d91906119dc565b60405180910390f35b34801561013257600080fd5b5061013b61029f565b005b34801561014957600080fd5b506101526103f7565b005b34801561016057600080fd5b5061017b600480360381019061017691906114dd565b6104e8565b005b34801561018957600080fd5b506101926105bc565b005b3480156101a057600080fd5b506101a9610695565b005b6101b3610881565b6040516101c091906119dc565b60405180910390f35b3480156101d557600080fd5b506101f060048036038101906101eb919061150a565b610919565b005b3480156101fe57600080fd5b50610207610b51565b6040516102149190611804565b60405180910390f35b34801561022957600080fd5b50610244600480360381019061023f91906115c4565b610b75565b005b34801561025257600080fd5b5061026d6004803603810190610268919061150a565b610cb8565b005b60016020528060005260406000206000915090505481565b60006020528060005260406000206000915090505481565b60008060003373ffffffffffffffffffffffffffffffffffffffff1673ffffffffffffffffffffffffffffffffffffffff168152602001908152602001600020549050600081116102ef57600080fd5b806000803373ffffffffffffffffffffffffffffffffffffffff1673ffffffffffffffffffffffffffffffffffffffff168152602001908152602001600020600082825461033d9190611ac3565b92505081905550600360009054906101000a900473ffffffffffffffffffffffffffffffffffffffff1673ffffffffffffffffffffffffffffffffffffffff1663a9059cbb33836040518363ffffffff1660e01b81526004016103a19291906117db565b602060405180830381600087803b1580156103bb57600080fd5b505af11580156103cf573d6000803e3d6000fd5b505050506040513d601f19601f820116820180604052508101906103f39190611597565b5050565b6000600160003373ffffffffffffffffffffffffffffffffffffffff1673ffffffffffffffffffffffffffffffffffffffff1681526020019081526020016000205490506000811161044857600080fd5b80600160003373ffffffffffffffffffffffffffffffffffffffff1673ffffffffffffffffffffffffffffffffffffffff16815260200190815260200160002060008282546104979190611ac3565b925050819055503373ffffffffffffffffffffffffffffffffffffffff166108fc829081150290604051600060405180830381858888f193505050501580156104e4573d6000803e3d6000fd5b5050565b3373ffffffffffffffffffffffffffffffffffffffff16600260009054906101000a900473ffffffffffffffffffffffffffffffffffffffff1673ffffffffffffffffffffffffffffffffffffffff1614610578576040517f08c379a000000000000000000000000000000000000000000000000000000000815260040161056f906119bc565b60405180910390fd5b80600360006101000a81548173ffffffffffffffffffffffffffffffffffffffff021916908373ffffffffffffffffffffffffffffffffffffffff16021790555050565b3373ffffffffffffffffffffffffffffffffffffffff16600260009054906101000a900473ffffffffffffffffffffffffffffffffffffffff1673ffffffffffffffffffffffffffffffffffffffff161461064c576040517f08c379a0000000000000000000000000000000000000000000000000000000008152600401610643906119bc565b60405180910390fd5b3373ffffffffffffffffffffffffffffffffffffffff166108fc479081150290604051600060405180830381858888f19350505050158015610692573d6000803e3d6000fd5b50565b3373ffffffffffffffffffffffffffffffffffffffff16600260009054906101000a900473ffffffffffffffffffffffffffffffffffffffff1673ffffffffffffffffffffffffffffffffffffffff1614610725576040517f08c379a000000000000000000000000000000000000000000000000000000000815260040161071c906119bc565b60405180910390fd5b600360009054906101000a900473ffffffffffffffffffffffffffffffffffffffff1673ffffffffffffffffffffffffffffffffffffffff1663a9059cbb33600360009054906101000a900473ffffffffffffffffffffffffffffffffffffffff1673ffffffffffffffffffffffffffffffffffffffff166370a08231306040518263ffffffff1660e01b81526004016107bf91906117c0565b60206040518083038186803b1580156107d757600080fd5b505afa1580156107eb573d6000803e3d6000fd5b505050506040513d601f19601f8201168201806040525081019061080f91906115f1565b6040518363ffffffff1660e01b815260040161082c9291906117db565b602060405180830381600087803b15801561084657600080fd5b505af115801561085a573d6000803e3d6000fd5b505050506040513d601f19601f8201168201806040525081019061087e9190611597565b50565b60003373ffffffffffffffffffffffffffffffffffffffff16600260009054906101000a900473ffffffffffffffffffffffffffffffffffffffff1673ffffffffffffffffffffffffffffffffffffffff1614610913576040517f08c379a000000000000000000000000000000000000000000000000000000000815260040161090a906119bc565b60405180910390fd5b34905090565b3373ffffffffffffffffffffffffffffffffffffffff16600260009054906101000a900473ffffffffffffffffffffffffffffffffffffffff1673ffffffffffffffffffffffffffffffffffffffff16146109a9576040517f08c379a00000000000000000000000000000000000000000000000000000000081526004016109a0906119bc565b60405180910390fd5b600062015180856109ba9190611a69565b426109c59190611a13565b905060007f568b1bb2afb4638530eee422d4eae40a4889c2c005ae59df5381049cb97de1a1888884604051602001610a00949392919061181f565b6040516020818303038152906040528051906020012090506000610a2382610fb1565b9050610a3181878787610fcb565b73ffffffffffffffffffffffffffffffffffffffff16600260009054906101000a900473ffffffffffffffffffffffffffffffffffffffff1673ffffffffffffffffffffffffffffffffffffffff1614610ac0576040517f08c379a0000000000000000000000000000000000000000000000000000000008152600401610ab79061191c565b60405180910390fd5b824210610b02576040517f08c379a0000000000000000000000000000000000000000000000000000000008152600401610af99061197c565b60405180910390fd5b87600160008b73ffffffffffffffffffffffffffffffffffffffff1673ffffffffffffffffffffffffffffffffffffffff16815260200190815260200160002081905550505050505050505050565b7f568b1bb2afb4638530eee422d4eae40a4889c2c005ae59df5381049cb97de1a181565b3373ffffffffffffffffffffffffffffffffffffffff16600260009054906101000a900473ffffffffffffffffffffffffffffffffffffffff1673ffffffffffffffffffffffffffffffffffffffff1614610c05576040517f08c379a0000000000000000000000000000000000000000000000000000000008152600401610bfc906119bc565b60405180910390fd5b600360009054906101000a900473ffffffffffffffffffffffffffffffffffffffff1673ffffffffffffffffffffffffffffffffffffffff1663a9059cbb30836040518363ffffffff1660e01b8152600401610c629291906117db565b602060405180830381600087803b158015610c7c57600080fd5b505af1158015610c90573d6000803e3d6000fd5b505050506040513d601f19601f82011682018060405250810190610cb49190611597565b5050565b3373ffffffffffffffffffffffffffffffffffffffff16600260009054906101000a900473ffffffffffffffffffffffffffffffffffffffff1673ffffffffffffffffffffffffffffffffffffffff1614610d48576040517f08c379a0000000000000000000000000000000000000000000000000000000008152600401610d3f906119bc565b60405180910390fd5b60006201518085610d599190611a69565b42610d649190611a13565b905060007f568b1bb2afb4638530eee422d4eae40a4889c2c005ae59df5381049cb97de1a1888884604051602001610d9f949392919061181f565b6040516020818303038152906040528051906020012090506000610dc282610fb1565b9050610dd081878787610fcb565b73ffffffffffffffffffffffffffffffffffffffff16600260009054906101000a900473ffffffffffffffffffffffffffffffffffffffff1673ffffffffffffffffffffffffffffffffffffffff1614610e5f576040517f08c379a0000000000000000000000000000000000000000000000000000000008152600401610e569061191c565b60405180910390fd5b824210610ea1576040517f08c379a0000000000000000000000000000000000000000000000000000000008152600401610e989061197c565b60405180910390fd5b876000808b73ffffffffffffffffffffffffffffffffffffffff1673ffffffffffffffffffffffffffffffffffffffff1681526020019081526020016000206000828254610eef9190611a13565b92505081905550600360009054906101000a900473ffffffffffffffffffffffffffffffffffffffff1673ffffffffffffffffffffffffffffffffffffffff1663095ea7b38a8a6040518363ffffffff1660e01b8152600401610f539291906117db565b602060405180830381600087803b158015610f6d57600080fd5b505af1158015610f81573d6000803e3d6000fd5b505050506040513d601f19601f82011682018060405250810190610fa59190611597565b50505050505050505050565b6000610fc4610fbe610ff6565b83611110565b9050919050565b6000806000610fdc87878787611143565b91509150610fe981611250565b8192505050949350505050565b60007f000000000000000000000000000000000000000000000000000000000000000073ffffffffffffffffffffffffffffffffffffffff163073ffffffffffffffffffffffffffffffffffffffff1614801561107257507f000000000000000000000000000000000000000000000000000000000000000046145b1561109f577f0000000000000000000000000000000000000000000000000000000000000000905061110d565b61110a7f00000000000000000000000000000000000000000000000000000000000000007f00000000000000000000000000000000000000000000000000000000000000007f0000000000000000000000000000000000000000000000000000000000000000611425565b90505b90565b60008282604051602001611125929190611789565b60405160208183030381529060405280519060200120905092915050565b6000807f7fffffffffffffffffffffffffffffff5d576e7357a4501ddfe92f46681b20a08360001c111561117e576000600391509150611247565b601b8560ff16141580156111965750601c8560ff1614155b156111a8576000600491509150611247565b6000600187878787604051600081526020016040526040516111cd94939291906118b7565b6020604051602081039080840390855afa1580156111ef573d6000803e3d6000fd5b505050602060405103519050600073ffffffffffffffffffffffffffffffffffffffff168173ffffffffffffffffffffffffffffffffffffffff16141561123e57600060019250925050611247565b80600092509250505b94509492505050565b6000600481111561126457611263611b8f565b5b81600481111561127757611276611b8f565b5b141561128257611422565b6001600481111561129657611295611b8f565b5b8160048111156112a9576112a8611b8f565b5b14156112ea576040517f08c379a00000000000000000000000000000000000000000000000000000000081526004016112e1906118fc565b60405180910390fd5b600260048111156112fe576112fd611b8f565b5b81600481111561131157611310611b8f565b5b1415611352576040517f08c379a00000000000000000000000000000000000000000000000000000000081526004016113499061193c565b60405180910390fd5b6003600481111561136657611365611b8f565b5b81600481111561137957611378611b8f565b5b14156113ba576040517f08c379a00000000000000000000000000000000000000000000000000000000081526004016113b19061195c565b60405180910390fd5b6004808111156113cd576113cc611b8f565b5b8160048111156113e0576113df611b8f565b5b1415611421576040517f08c379a00000000000000000000000000000000000000000000000000000000081526004016114189061199c565b60405180910390fd5b5b50565b60008383834630604051602001611440959493929190611864565b6040516020818303038152906040528051906020012090509392505050565b60008135905061146e81611d7d565b92915050565b60008151905061148381611d94565b92915050565b60008135905061149881611dab565b92915050565b6000813590506114ad81611dc2565b92915050565b6000815190506114c281611dc2565b92915050565b6000813590506114d781611dd9565b92915050565b6000602082840312156114f3576114f2611bbe565b5b60006115018482850161145f565b91505092915050565b60008060008060008060c0878903121561152757611526611bbe565b5b600061153589828a0161145f565b965050602061154689828a0161149e565b955050604061155789828a0161149e565b945050606061156889828a016114c8565b935050608061157989828a01611489565b92505060a061158a89828a01611489565b9150509295509295509295565b6000602082840312156115ad576115ac611bbe565b5b60006115bb84828501611474565b91505092915050565b6000602082840312156115da576115d9611bbe565b5b60006115e88482850161149e565b91505092915050565b60006020828403121561160757611606611bbe565b5b6000611615848285016114b3565b91505092915050565b61162781611af7565b82525050565b61163681611b15565b82525050565b61164d61164882611b15565b611b56565b82525050565b60006116606018836119f7565b915061166b82611bc3565b602082019050919050565b60006116836011836119f7565b915061168e82611bec565b602082019050919050565b60006116a6601f836119f7565b91506116b182611c15565b602082019050919050565b60006116c9600283611a08565b91506116d482611c3e565b600282019050919050565b60006116ec6022836119f7565b91506116f782611c67565b604082019050919050565b600061170f6026836119f7565b915061171a82611cb6565b604082019050919050565b60006117326022836119f7565b915061173d82611d05565b604082019050919050565b60006117556011836119f7565b915061176082611d54565b602082019050919050565b61177481611b3f565b82525050565b61178381611b49565b82525050565b6000611794826116bc565b91506117a0828561163c565b6020820191506117b0828461163c565b6020820191508190509392505050565b60006020820190506117d5600083018461161e565b92915050565b60006040820190506117f0600083018561161e565b6117fd602083018461176b565b9392505050565b6000602082019050611819600083018461162d565b92915050565b6000608082019050611834600083018761162d565b611841602083018661161e565b61184e604083018561176b565b61185b606083018461176b565b95945050505050565b600060a082019050611879600083018861162d565b611886602083018761162d565b611893604083018661162d565b6118a0606083018561176b565b6118ad608083018461161e565b9695505050505050565b60006080820190506118cc600083018761162d565b6118d9602083018661177a565b6118e6604083018561162d565b6118f3606083018461162d565b95945050505050565b6000602082019050818103600083015261191581611653565b9050919050565b6000602082019050818103600083015261193581611676565b9050919050565b6000602082019050818103600083015261195581611699565b9050919050565b60006020820190508181036000830152611975816116df565b9050919050565b6000602082019050818103600083015261199581611702565b9050919050565b600060208201905081810360008301526119b581611725565b9050919050565b600060208201905081810360008301526119d581611748565b9050919050565b60006020820190506119f1600083018461176b565b92915050565b600082825260208201905092915050565b600081905092915050565b6000611a1e82611b3f565b9150611a2983611b3f565b9250827fffffffffffffffffffffffffffffffffffffffffffffffffffffffffffffffff03821115611a5e57611a5d611b60565b5b828201905092915050565b6000611a7482611b3f565b9150611a7f83611b3f565b9250817fffffffffffffffffffffffffffffffffffffffffffffffffffffffffffffffff0483118215151615611ab857611ab7611b60565b5b828202905092915050565b6000611ace82611b3f565b9150611ad983611b3f565b925082821015611aec57611aeb611b60565b5b828203905092915050565b6000611b0282611b1f565b9050919050565b60008115159050919050565b6000819050919050565b600073ffffffffffffffffffffffffffffffffffffffff82169050919050565b6000819050919050565b600060ff82169050919050565b6000819050919050565b7f4e487b7100000000000000000000000000000000000000000000000000000000600052601160045260246000fd5b7f4e487b7100000000000000000000000000000000000000000000000000000000600052602160045260246000fd5b600080fd5b7f45434453413a20696e76616c6964207369676e61747572650000000000000000600082015250565b7f696e76616c6964207369676e6174757265000000000000000000000000000000600082015250565b7f45434453413a20696e76616c6964207369676e6174757265206c656e67746800600082015250565b7f1901000000000000000000000000000000000000000000000000000000000000600082015250565b7f45434453413a20696e76616c6964207369676e6174757265202773272076616c60008201527f7565000000000000000000000000000000000000000000000000000000000000602082015250565b7f4d7946756e6374696f6e3a207369676e6564207472616e73616374696f6e206560008201527f7870697265640000000000000000000000000000000000000000000000000000602082015250565b7f45434453413a20696e76616c6964207369676e6174757265202776272076616c60008201527f7565000000000000000000000000000000000000000000000000000000000000602082015250565b7f596f7520617265206e6f74206f776e6572000000000000000000000000000000600082015250565b611d8681611af7565b8114611d9157600080fd5b50565b611d9d81611b09565b8114611da857600080fd5b50565b611db481611b15565b8114611dbf57600080fd5b50565b611dcb81611b3f565b8114611dd657600080fd5b50565b611de281611b49565b8114611ded57600080fd5b5056fea264697066735822122002304b93f54acb005909e0cc9926a4e1271019c2c365f75baf38a531a9aee6c064736f6c63430008070033",
  "immutableReferences": {
    "1056": [
      {
        "length": 32,
        "start": 4217
      }
    ],
    "1058": [
      {
        "length": 32,
        "start": 4176
      }
    ],
    "1060": [
      {
        "length": 32,
        "start": 4090
      }
    ],
    "1062": [
      {
        "length": 32,
        "start": 4293
      }
    ],
    "1064": [
      {
        "length": 32,
        "start": 4326
      }
    ],
    "1066": [
      {
        "length": 32,
        "start": 4260
      }
    ]
  },
  "source": "// SPDX-License-Identifier: MIT\n\npragma solidity 0.8.7;\n\nimport \"@openzeppelin/contracts/token/ERC20/IERC20.sol\";\nimport \"@openzeppelin/contracts/utils/cryptography/draft-EIP712.sol\";\n\ncontract AirDrop is EIP712 {\n\n    mapping(address=>uint256)public balanceOfTokens;\n    mapping(address=>uint256)public balanceOfEther;\n\n    address private _owner;\n    bytes32 public constant DROP_HASH =\n        keccak256(\n            \"Drop(uint256 amount_, address recepient_, uint256 deadline_)\"\n        );\n\n    IERC20 private _token;\n\n    modifier onlyOwner() {\n        require(_owner == msg.sender, \"You are not owner\");\n        _;\n    }\n\n    constructor(address token_) EIP712(\"AirDrop\", \"3\") {\n        _token = IERC20(token_);\n        _owner = msg.sender;\n    }\n\n    function depositTokens(uint256 amount_) external onlyOwner {\n        _token.transfer(address(this), amount_);\n    }\n\n    function depositEther() external payable onlyOwner returns(uint256) {\n        return uint256(msg.value);\n    }\n\n    function dropTokens(\n        address recepients_,\n        uint256 amount_,\n        uint256 deadline_,\n        uint8 v,\n        bytes32 r,\n        bytes32 s\n    ) external onlyOwner {\n        uint256 deadline = (block.timestamp + (deadline_ * 1 days));\n        bytes32 structHash = keccak256(\n            abi.encode(DROP_HASH, recepients_, amount_, deadline)\n        );\n        bytes32 digest = _hashTypedDataV4(structHash);\n\n        require(_owner == ECDSA.recover(digest, v, r, s), \"invalid signature\");\n        require(\n            block.timestamp < deadline,\n            \"MyFunction: signed transaction expired\"\n        );\n\n        balanceOfTokens[recepients_] += amount_;\n        _token.approve(recepients_, amount_);\n\n    }\n\n    function dropEther(\n        address recepients_,\n        uint256 amount_,\n        uint256 deadline_,\n        uint8 v,\n        bytes32 r,\n        bytes32 s\n    ) external onlyOwner {\n        uint256 deadline = (block.timestamp + (deadline_ * 1 days));\n        bytes32 structHash = keccak256(\n            abi.encode(DROP_HASH, recepients_, amount_, deadline)\n        );\n        bytes32 digest = _hashTypedDataV4(structHash);\n\n        require(_owner == ECDSA.recover(digest, v, r, s), \"invalid signature\");\n        require(\n            block.timestamp < deadline,\n            \"MyFunction: signed transaction expired\"\n        );\n\n        balanceOfEther[recepients_] = amount_;\n    }\n\n    function updateTokenAddress(address token_) external onlyOwner {\n        _token = IERC20(token_);\n    }\n\n    function withdrawTokens() external onlyOwner {\n        _token.transfer(msg.sender, _token.balanceOf(address(this)));\n    }\n\n    function withdrawEther() external onlyOwner {\n        payable(msg.sender).transfer(address(this).balance);\n    }\n\n    function claimToken() external {\n        uint256 amountOfTokens = balanceOfTokens[msg.sender];\n        require(amountOfTokens > 0);\n        balanceOfTokens[msg.sender] -= amountOfTokens;\n        _token.transfer(msg.sender, amountOfTokens);\n    }\n\n    function claimEther() external {\n        uint256 amountOfEther = balanceOfEther[msg.sender];\n        require(amountOfEther > 0);\n        balanceOfEther[msg.sender] -= amountOfEther;\n        payable(msg.sender).transfer(amountOfEther);\n    }\n}\n",
  "sourcePath": "/Users/pavel/SecondTaskZanozin/contracts/AirDrop.sol",
  "compiler": {
    "name": "solc",
    "version": "0.8.7+commit.e28d00a7.Emscripten.clang"
  },
  "schemaVersion": "3.3.4",
  "updatedAt": "2022-06-16T18:38:27.138Z",
  "devdoc": {
    "kind": "dev",
    "methods": {},
    "version": 1
  },
  "userdoc": {
    "kind": "user",
    "methods": {},
    "version": 1
  }
}