{
  "contractName": "AirDrop",
  "abi": [
    {
      "inputs": [
        {
          "internalType": "address",
          "name": "token_",
          "type": "address"
        }
      ],
      "stateMutability": "nonpayable",
      "type": "constructor"
    },
    {
      "anonymous": false,
      "inputs": [
        {
          "indexed": false,
          "internalType": "address",
          "name": "to",
          "type": "address"
        },
        {
          "indexed": false,
          "internalType": "uint256",
          "name": "amount",
          "type": "uint256"
        }
      ],
      "name": "ClaimEther",
      "type": "event"
    },
    {
      "anonymous": false,
      "inputs": [
        {
          "indexed": false,
          "internalType": "address",
          "name": "to",
          "type": "address"
        },
        {
          "indexed": false,
          "internalType": "uint256",
          "name": "amount",
          "type": "uint256"
        }
      ],
      "name": "ClaimToken",
      "type": "event"
    },
    {
      "anonymous": false,
      "inputs": [
        {
          "indexed": false,
          "internalType": "uint256",
          "name": "amount",
          "type": "uint256"
        }
      ],
      "name": "DepositEther",
      "type": "event"
    },
    {
      "anonymous": false,
      "inputs": [
        {
          "indexed": false,
          "internalType": "uint256",
          "name": "amount",
          "type": "uint256"
        }
      ],
      "name": "DepositTokens",
      "type": "event"
    },
    {
      "anonymous": false,
      "inputs": [
        {
          "indexed": false,
          "internalType": "address[]",
          "name": "recepient",
          "type": "address[]"
        },
        {
          "indexed": false,
          "internalType": "uint256[]",
          "name": "amount",
          "type": "uint256[]"
        },
        {
          "indexed": false,
          "internalType": "uint256",
          "name": "deadline",
          "type": "uint256"
        }
      ],
      "name": "DropEther",
      "type": "event"
    },
    {
      "anonymous": false,
      "inputs": [
        {
          "indexed": false,
          "internalType": "address[]",
          "name": "recepient",
          "type": "address[]"
        },
        {
          "indexed": false,
          "internalType": "uint256[]",
          "name": "amount",
          "type": "uint256[]"
        },
        {
          "indexed": false,
          "internalType": "uint256",
          "name": "deadline",
          "type": "uint256"
        }
      ],
      "name": "DropTokens",
      "type": "event"
    },
    {
      "anonymous": false,
      "inputs": [
        {
          "indexed": false,
          "internalType": "address",
          "name": "newContract",
          "type": "address"
        }
      ],
      "name": "NewContractAddress",
      "type": "event"
    },
    {
      "anonymous": false,
      "inputs": [
        {
          "indexed": true,
          "internalType": "address",
          "name": "previousOwner",
          "type": "address"
        },
        {
          "indexed": true,
          "internalType": "address",
          "name": "newOwner",
          "type": "address"
        }
      ],
      "name": "OwnershipTransferred",
      "type": "event"
    },
    {
      "anonymous": false,
      "inputs": [
        {
          "indexed": false,
          "internalType": "address",
          "name": "to",
          "type": "address"
        },
        {
          "indexed": false,
          "internalType": "uint256",
          "name": "amount",
          "type": "uint256"
        }
      ],
      "name": "WithdrawEther",
      "type": "event"
    },
    {
      "anonymous": false,
      "inputs": [
        {
          "indexed": false,
          "internalType": "address",
          "name": "to",
          "type": "address"
        },
        {
          "indexed": false,
          "internalType": "uint256",
          "name": "amount",
          "type": "uint256"
        }
      ],
      "name": "WithdrawTokens",
      "type": "event"
    },
    {
      "inputs": [],
      "name": "DROP_HASH",
      "outputs": [
        {
          "internalType": "bytes32",
          "name": "",
          "type": "bytes32"
        }
      ],
      "stateMutability": "view",
      "type": "function"
    },
    {
      "inputs": [
        {
          "internalType": "address",
          "name": "",
          "type": "address"
        }
      ],
      "name": "balanceOfEther",
      "outputs": [
        {
          "internalType": "uint256",
          "name": "",
          "type": "uint256"
        }
      ],
      "stateMutability": "view",
      "type": "function"
    },
    {
      "inputs": [
        {
          "internalType": "address",
          "name": "",
          "type": "address"
        }
      ],
      "name": "balanceOfTokens",
      "outputs": [
        {
          "internalType": "uint256",
          "name": "",
          "type": "uint256"
        }
      ],
      "stateMutability": "view",
      "type": "function"
    },
    {
      "inputs": [],
      "name": "owner",
      "outputs": [
        {
          "internalType": "address",
          "name": "",
          "type": "address"
        }
      ],
      "stateMutability": "view",
      "type": "function"
    },
    {
      "inputs": [],
      "name": "renounceOwnership",
      "outputs": [],
      "stateMutability": "nonpayable",
      "type": "function"
    },
    {
      "inputs": [],
      "name": "token",
      "outputs": [
        {
          "internalType": "contract IERC20",
          "name": "",
          "type": "address"
        }
      ],
      "stateMutability": "view",
      "type": "function"
    },
    {
      "inputs": [
        {
          "internalType": "address",
          "name": "newOwner",
          "type": "address"
        }
      ],
      "name": "transferOwnership",
      "outputs": [],
      "stateMutability": "nonpayable",
      "type": "function"
    },
    {
      "inputs": [
        {
          "internalType": "uint256",
          "name": "amount_",
          "type": "uint256"
        }
      ],
      "name": "depositTokens",
      "outputs": [],
      "stateMutability": "nonpayable",
      "type": "function"
    },
    {
      "inputs": [],
      "name": "depositEther",
      "outputs": [],
      "stateMutability": "payable",
      "type": "function"
    },
    {
      "inputs": [
        {
          "internalType": "address[]",
          "name": "recepients_",
          "type": "address[]"
        },
        {
          "internalType": "uint256[]",
          "name": "amount_",
          "type": "uint256[]"
        },
        {
          "internalType": "uint256",
          "name": "deadline_",
          "type": "uint256"
        },
        {
          "internalType": "uint8",
          "name": "v_",
          "type": "uint8"
        },
        {
          "internalType": "bytes32",
          "name": "r_",
          "type": "bytes32"
        },
        {
          "internalType": "bytes32",
          "name": "s_",
          "type": "bytes32"
        }
      ],
      "name": "dropTokens",
      "outputs": [],
      "stateMutability": "nonpayable",
      "type": "function"
    },
    {
      "inputs": [
        {
          "internalType": "address[]",
          "name": "recepients_",
          "type": "address[]"
        },
        {
          "internalType": "uint256[]",
          "name": "amount_",
          "type": "uint256[]"
        },
        {
          "internalType": "uint256",
          "name": "deadline_",
          "type": "uint256"
        },
        {
          "internalType": "uint8",
          "name": "v_",
          "type": "uint8"
        },
        {
          "internalType": "bytes32",
          "name": "r_",
          "type": "bytes32"
        },
        {
          "internalType": "bytes32",
          "name": "s_",
          "type": "bytes32"
        }
      ],
      "name": "dropEther",
      "outputs": [],
      "stateMutability": "nonpayable",
      "type": "function"
    },
    {
      "inputs": [
        {
          "internalType": "address",
          "name": "token_",
          "type": "address"
        }
      ],
      "name": "updateTokenAddress",
      "outputs": [],
      "stateMutability": "nonpayable",
      "type": "function"
    },
    {
      "inputs": [],
      "name": "withdrawTokens",
      "outputs": [],
      "stateMutability": "nonpayable",
      "type": "function"
    },
    {
      "inputs": [],
      "name": "withdrawEther",
      "outputs": [],
      "stateMutability": "nonpayable",
      "type": "function"
    },
    {
      "inputs": [],
      "name": "claimToken",
      "outputs": [],
      "stateMutability": "nonpayable",
      "type": "function"
    },
    {
      "inputs": [],
      "name": "claimEther",
      "outputs": [],
      "stateMutability": "nonpayable",
      "type": "function"
    }
  ],
  "bytecode": "0x6101406040523480156200001257600080fd5b5060405162003bc138038062003bc183398181016040528101906200003891906200031a565b6040518060400160405280600781526020017f41697244726f70000000000000000000000000000000000000000000000000008152506040518060400160405280600181526020017f310000000000000000000000000000000000000000000000000000000000000081525060008280519060200120905060008280519060200120905060007f8b73c3c69bb8fe3d512ecc4cf759cc79239f7b179b0ffacaa9a75d522b39400f90508260e081815250508161010081815250504660a081815250506200010d818484620001d860201b60201c565b608081815250503073ffffffffffffffffffffffffffffffffffffffff1660c08173ffffffffffffffffffffffffffffffffffffffff1660601b815250508061012081815250505050505050620001796200016d6200021460201b60201c565b6200021c60201b60201c565b6200018f81620002e060201b620016481760201c565b5080600360006101000a81548173ffffffffffffffffffffffffffffffffffffffff021916908373ffffffffffffffffffffffffffffffffffffffff1602179055505062000443565b60008383834630604051602001620001f59594939291906200037f565b6040516020818303038152906040528051906020012090509392505050565b600033905090565b60008060009054906101000a900473ffffffffffffffffffffffffffffffffffffffff169050816000806101000a81548173ffffffffffffffffffffffffffffffffffffffff021916908373ffffffffffffffffffffffffffffffffffffffff1602179055508173ffffffffffffffffffffffffffffffffffffffff168173ffffffffffffffffffffffffffffffffffffffff167f8be0079c531659141344cd1fd0a4f28419497f9722a3daafe3b4186f6b6457e060405160405180910390a35050565b6000808273ffffffffffffffffffffffffffffffffffffffff163b119050919050565b600081519050620003148162000429565b92915050565b60006020828403121562000333576200033262000424565b5b6000620003438482850162000303565b91505092915050565b6200035781620003dc565b82525050565b6200036881620003f0565b82525050565b62000379816200041a565b82525050565b600060a0820190506200039660008301886200035d565b620003a560208301876200035d565b620003b460408301866200035d565b620003c360608301856200036e565b620003d260808301846200034c565b9695505050505050565b6000620003e982620003fa565b9050919050565b6000819050919050565b600073ffffffffffffffffffffffffffffffffffffffff82169050919050565b6000819050919050565b600080fd5b6200043481620003dc565b81146200044057600080fd5b50565b60805160a05160c05160601c60e051610100516101205161372b620004966000396000611a2d01526000611a6f01526000611a4e01526000611983015260006119d901526000611a02015261372b6000f3fe6080604052600436106100f35760003560e01c80637362377b1161008a578063c777231811610059578063c777231814610295578063dd49756e146102c0578063f2fde38b146102e9578063fc0c546a14610312576100f3565b80637362377b146102325780638d8f2adb146102495780638da5cb5b1461026057806398ea5fca1461028b576100f3565b806355291dbd116100c657806355291dbd146101b25780636691461a146101c957806370a0176b146101f2578063715018a61461021b576100f3565b806321114904146100f85780632ef1f9c9146101355780632ff57da81461015e5780634451d89f1461019b575b600080fd5b34801561010457600080fd5b5061011f600480360381019061011a919061216c565b61033d565b60405161012c9190612deb565b60405180910390f35b34801561014157600080fd5b5061015c60048036038101906101579190612199565b610355565b005b34801561016a57600080fd5b506101856004803603810190610180919061216c565b61074b565b6040516101929190612deb565b60405180910390f35b3480156101a757600080fd5b506101b0610763565b005b3480156101be57600080fd5b506101c76108be565b005b3480156101d557600080fd5b506101f060048036038101906101eb919061216c565b6109d6565b005b3480156101fe57600080fd5b5061021960048036038101906102149190612199565b610b1c565b005b34801561022757600080fd5b50610230610f12565b005b34801561023e57600080fd5b50610247610f9a565b005b34801561025557600080fd5b5061025e6110a4565b005b34801561026c57600080fd5b5061027561129b565b6040516102829190612944565b60405180910390f35b6102936112c4565b005b3480156102a157600080fd5b506102aa6113bd565b6040516102b79190612a08565b60405180910390f35b3480156102cc57600080fd5b506102e760048036038101906102e29190612295565b6113e1565b005b3480156102f557600080fd5b50610310600480360381019061030b919061216c565b61152a565b005b34801561031e57600080fd5b50610327611622565b6040516103349190612b0e565b60405180910390f35b60026020528060005260406000206000915090505481565b61035d61166b565b73ffffffffffffffffffffffffffffffffffffffff1661037b61129b565b73ffffffffffffffffffffffffffffffffffffffff16146103d1576040517f08c379a00000000000000000000000000000000000000000000000000000000081526004016103c890612d0b565b60405180910390fd5b858590508888905014610419576040517f08c379a000000000000000000000000000000000000000000000000000000000815260040161041090612beb565b60405180910390fd5b60007f566b4baaeb57e1429af61068ce6a7d7e67d20fff4764afdb19cd8b25a33c3477878760405160200161044f9291906128c8565b60405160208183030381529060405280519060200120868b8b6040516020016104799291906128af565b6040516020818303038152906040528051906020012060016040516020016104a5959493929190612a76565b60405160208183030381529060405280519060200120905060006104c882611673565b905060006104d88287878761168d565b90508073ffffffffffffffffffffffffffffffffffffffff163373ffffffffffffffffffffffffffffffffffffffff1614610548576040517f08c379a000000000000000000000000000000000000000000000000000000000815260040161053f90612b8b565b60405180910390fd5b86421061058a576040517f08c379a000000000000000000000000000000000000000000000000000000000815260040161058190612dab565b60405180910390fd5b60005b8b8b90508110156106fe5760008a8a838181106105ad576105ac613087565b5b90506020020135141580156106165750600073ffffffffffffffffffffffffffffffffffffffff168c8c838181106105e8576105e7613087565b5b90506020020160208101906105fd919061216c565b73ffffffffffffffffffffffffffffffffffffffff1614155b610655576040517f08c379a000000000000000000000000000000000000000000000000000000000815260040161064c90612dcb565b60405180910390fd5b89898281811061066857610667613087565b5b90506020020135600260008e8e8581811061068657610685613087565b5b905060200201602081019061069b919061216c565b73ffffffffffffffffffffffffffffffffffffffff1673ffffffffffffffffffffffffffffffffffffffff16815260200190815260200160002060008282546106e49190612ea9565b9250508190555080806106f690612fd6565b91505061058d565b507f53cb26d1d67878dc9c2edf366487e7d88d6a52e07fed253d2c2c64709221f6aa8b8b8b8b8b6040516107369594939291906129bf565b60405180910390a15050505050505050505050565b60016020528060005260406000206000915090505481565b60003390506000600160008373ffffffffffffffffffffffffffffffffffffffff1673ffffffffffffffffffffffffffffffffffffffff168152602001908152602001600020549050600081116107ef576040517f08c379a00000000000000000000000000000000000000000000000000000000081526004016107e690612d2b565b60405180910390fd5b6000600160008473ffffffffffffffffffffffffffffffffffffffff1673ffffffffffffffffffffffffffffffffffffffff168152602001908152602001600020819055506108818282600360009054906101000a900473ffffffffffffffffffffffffffffffffffffffff1673ffffffffffffffffffffffffffffffffffffffff166116b89092919063ffffffff16565b7f5d425a3a6a3d5a60fbf147dc6659ce3dfeb701fc44fe90058c32783b8807c57482826040516108b2929190612996565b60405180910390a15050565b60003390506000600260008373ffffffffffffffffffffffffffffffffffffffff1673ffffffffffffffffffffffffffffffffffffffff1681526020019081526020016000205490506000811161094a576040517f08c379a000000000000000000000000000000000000000000000000000000000815260040161094190612ceb565b60405180910390fd5b6000600260008473ffffffffffffffffffffffffffffffffffffffff1673ffffffffffffffffffffffffffffffffffffffff16815260200190815260200160002081905550610999828261173e565b7f4d472b3c4c7c1930d0fabb285b98c29569d2919a93595ebe9f827c8c6045fd6882826040516109ca929190612996565b60405180910390a15050565b6109de61166b565b73ffffffffffffffffffffffffffffffffffffffff166109fc61129b565b73ffffffffffffffffffffffffffffffffffffffff1614610a52576040517f08c379a0000000000000000000000000000000000000000000000000000000008152600401610a4990612d0b565b60405180910390fd5b60011515610a5f82611648565b151514610aa1576040517f08c379a0000000000000000000000000000000000000000000000000000000008152600401610a9890612cab565b60405180910390fd5b80600360006101000a81548173ffffffffffffffffffffffffffffffffffffffff021916908373ffffffffffffffffffffffffffffffffffffffff1602179055507f347df869dd398e5c7c4a228fdfcd621e29beffbb21d815233f9af7114bbea6c381604051610b119190612944565b60405180910390a150565b610b2461166b565b73ffffffffffffffffffffffffffffffffffffffff16610b4261129b565b73ffffffffffffffffffffffffffffffffffffffff1614610b98576040517f08c379a0000000000000000000000000000000000000000000000000000000008152600401610b8f90612d0b565b60405180910390fd5b858590508888905014610be0576040517f08c379a0000000000000000000000000000000000000000000000000000000008152600401610bd790612beb565b60405180910390fd5b60007f566b4baaeb57e1429af61068ce6a7d7e67d20fff4764afdb19cd8b25a33c34778787604051602001610c169291906128c8565b60405160208183030381529060405280519060200120868b8b604051602001610c409291906128af565b604051602081830303815290604052805190602001206000604051602001610c6c959493929190612a76565b6040516020818303038152906040528051906020012090506000610c8f82611673565b90506000610c9f8287878761168d565b90508073ffffffffffffffffffffffffffffffffffffffff163373ffffffffffffffffffffffffffffffffffffffff1614610d0f576040517f08c379a0000000000000000000000000000000000000000000000000000000008152600401610d0690612b8b565b60405180910390fd5b864210610d51576040517f08c379a0000000000000000000000000000000000000000000000000000000008152600401610d4890612dab565b60405180910390fd5b60005b8b8b9050811015610ec55760008a8a83818110610d7457610d73613087565b5b9050602002013514158015610ddd5750600073ffffffffffffffffffffffffffffffffffffffff168c8c83818110610daf57610dae613087565b5b9050602002016020810190610dc4919061216c565b73ffffffffffffffffffffffffffffffffffffffff1614155b610e1c576040517f08c379a0000000000000000000000000000000000000000000000000000000008152600401610e1390612dcb565b60405180910390fd5b898982818110610e2f57610e2e613087565b5b90506020020135600160008e8e85818110610e4d57610e4c613087565b5b9050602002016020810190610e62919061216c565b73ffffffffffffffffffffffffffffffffffffffff1673ffffffffffffffffffffffffffffffffffffffff1681526020019081526020016000206000828254610eab9190612ea9565b925050819055508080610ebd90612fd6565b915050610d54565b507fe3d1b3f03a65bb629c5adac02674534dac76197afc5bcfb5b7879bae6e9b6f948b8b8b8b8b604051610efd9594939291906129bf565b60405180910390a15050505050505050505050565b610f1a61166b565b73ffffffffffffffffffffffffffffffffffffffff16610f3861129b565b73ffffffffffffffffffffffffffffffffffffffff1614610f8e576040517f08c379a0000000000000000000000000000000000000000000000000000000008152600401610f8590612d0b565b60405180910390fd5b610f986000611832565b565b610fa261166b565b73ffffffffffffffffffffffffffffffffffffffff16610fc061129b565b73ffffffffffffffffffffffffffffffffffffffff1614611016576040517f08c379a000000000000000000000000000000000000000000000000000000000815260040161100d90612d0b565b60405180910390fd5b60004711611059576040517f08c379a000000000000000000000000000000000000000000000000000000000815260040161105090612d4b565b60405180910390fd5b6000479050611068334761173e565b7fdb35132c111efe920cede025e819975671cfd1b8fcc1174762c8670c4e94c2113382604051611099929190612996565b60405180910390a150565b6110ac61166b565b73ffffffffffffffffffffffffffffffffffffffff166110ca61129b565b73ffffffffffffffffffffffffffffffffffffffff1614611120576040517f08c379a000000000000000000000000000000000000000000000000000000000815260040161111790612d0b565b60405180910390fd5b6000600360009054906101000a900473ffffffffffffffffffffffffffffffffffffffff1673ffffffffffffffffffffffffffffffffffffffff166370a08231306040518263ffffffff1660e01b815260040161117d9190612944565b60206040518083038186803b15801561119557600080fd5b505afa1580156111a9573d6000803e3d6000fd5b505050506040513d601f19601f820116820180604052508101906111cd91906122c2565b905060008111611212576040517f08c379a000000000000000000000000000000000000000000000000000000000815260040161120990612b6b565b60405180910390fd5b61125f3382600360009054906101000a900473ffffffffffffffffffffffffffffffffffffffff1673ffffffffffffffffffffffffffffffffffffffff166116b89092919063ffffffff16565b7f680f2e4f4032ebf1774e8cdbaddcb1b617a5a606411c8ca96257ada338d3833c3382604051611290929190612996565b60405180910390a150565b60008060009054906101000a900473ffffffffffffffffffffffffffffffffffffffff16905090565b6112cc61166b565b73ffffffffffffffffffffffffffffffffffffffff166112ea61129b565b73ffffffffffffffffffffffffffffffffffffffff1614611340576040517f08c379a000000000000000000000000000000000000000000000000000000000815260040161133790612d0b565b60405180910390fd5b6000341415611384576040517f08c379a000000000000000000000000000000000000000000000000000000000815260040161137b90612c8b565b60405180910390fd5b7fd5269418e5a2b45e710169d2c4b95243f38cee4ca6044cb91d8636dc4d01dd8a346040516113b39190612deb565b60405180910390a1565b7f566b4baaeb57e1429af61068ce6a7d7e67d20fff4764afdb19cd8b25a33c347781565b6113e961166b565b73ffffffffffffffffffffffffffffffffffffffff1661140761129b565b73ffffffffffffffffffffffffffffffffffffffff161461145d576040517f08c379a000000000000000000000000000000000000000000000000000000000815260040161145490612d0b565b60405180910390fd5b60008114156114a1576040517f08c379a000000000000000000000000000000000000000000000000000000000815260040161149890612c8b565b60405180910390fd5b6114f0333083600360009054906101000a900473ffffffffffffffffffffffffffffffffffffffff1673ffffffffffffffffffffffffffffffffffffffff166118f6909392919063ffffffff16565b7f0fce723067d5f2ce5da3fd71ea6a66060aa4d16a6e7c6c1b700c50cd681b47b48160405161151f9190612deb565b60405180910390a150565b61153261166b565b73ffffffffffffffffffffffffffffffffffffffff1661155061129b565b73ffffffffffffffffffffffffffffffffffffffff16146115a6576040517f08c379a000000000000000000000000000000000000000000000000000000000815260040161159d90612d0b565b60405180910390fd5b600073ffffffffffffffffffffffffffffffffffffffff168173ffffffffffffffffffffffffffffffffffffffff161415611616576040517f08c379a000000000000000000000000000000000000000000000000000000000815260040161160d90612bcb565b60405180910390fd5b61161f81611832565b50565b600360009054906101000a900473ffffffffffffffffffffffffffffffffffffffff1681565b6000808273ffffffffffffffffffffffffffffffffffffffff163b119050919050565b600033905090565b600061168661168061197f565b83611a99565b9050919050565b600080600061169e87878787611acc565b915091506116ab81611bd9565b8192505050949350505050565b6117398363a9059cbb60e01b84846040516024016116d7929190612996565b604051602081830303815290604052907bffffffffffffffffffffffffffffffffffffffffffffffffffffffff19166020820180517bffffffffffffffffffffffffffffffffffffffffffffffffffffffff8381831617835250505050611dae565b505050565b80471015611781576040517f08c379a000000000000000000000000000000000000000000000000000000000815260040161177890612c4b565b60405180910390fd5b60008273ffffffffffffffffffffffffffffffffffffffff16826040516117a79061292f565b60006040518083038185875af1925050503d80600081146117e4576040519150601f19603f3d011682016040523d82523d6000602084013e6117e9565b606091505b505090508061182d576040517f08c379a000000000000000000000000000000000000000000000000000000000815260040161182490612c0b565b60405180910390fd5b505050565b60008060009054906101000a900473ffffffffffffffffffffffffffffffffffffffff169050816000806101000a81548173ffffffffffffffffffffffffffffffffffffffff021916908373ffffffffffffffffffffffffffffffffffffffff1602179055508173ffffffffffffffffffffffffffffffffffffffff168173ffffffffffffffffffffffffffffffffffffffff167f8be0079c531659141344cd1fd0a4f28419497f9722a3daafe3b4186f6b6457e060405160405180910390a35050565b611979846323b872dd60e01b8585856040516024016119179392919061295f565b604051602081830303815290604052907bffffffffffffffffffffffffffffffffffffffffffffffffffffffff19166020820180517bffffffffffffffffffffffffffffffffffffffffffffffffffffffff8381831617835250505050611dae565b50505050565b60007f000000000000000000000000000000000000000000000000000000000000000073ffffffffffffffffffffffffffffffffffffffff163073ffffffffffffffffffffffffffffffffffffffff161480156119fb57507f000000000000000000000000000000000000000000000000000000000000000046145b15611a28577f00000000000000000000000000000000000000000000000000000000000000009050611a96565b611a937f00000000000000000000000000000000000000000000000000000000000000007f00000000000000000000000000000000000000000000000000000000000000007f0000000000000000000000000000000000000000000000000000000000000000611e75565b90505b90565b60008282604051602001611aae9291906128f8565b60405160208183030381529060405280519060200120905092915050565b6000807f7fffffffffffffffffffffffffffffff5d576e7357a4501ddfe92f46681b20a08360001c1115611b07576000600391509150611bd0565b601b8560ff1614158015611b1f5750601c8560ff1614155b15611b31576000600491509150611bd0565b600060018787878760405160008152602001604052604051611b569493929190612ac9565b6020604051602081039080840390855afa158015611b78573d6000803e3d6000fd5b505050602060405103519050600073ffffffffffffffffffffffffffffffffffffffff168173ffffffffffffffffffffffffffffffffffffffff161415611bc757600060019250925050611bd0565b80600092509250505b94509492505050565b60006004811115611bed57611bec613058565b5b816004811115611c0057611bff613058565b5b1415611c0b57611dab565b60016004811115611c1f57611c1e613058565b5b816004811115611c3257611c31613058565b5b1415611c73576040517f08c379a0000000000000000000000000000000000000000000000000000000008152600401611c6a90612b4b565b60405180910390fd5b60026004811115611c8757611c86613058565b5b816004811115611c9a57611c99613058565b5b1415611cdb576040517f08c379a0000000000000000000000000000000000000000000000000000000008152600401611cd290612bab565b60405180910390fd5b60036004811115611cef57611cee613058565b5b816004811115611d0257611d01613058565b5b1415611d43576040517f08c379a0000000000000000000000000000000000000000000000000000000008152600401611d3a90612c2b565b60405180910390fd5b600480811115611d5657611d55613058565b5b816004811115611d6957611d68613058565b5b1415611daa576040517f08c379a0000000000000000000000000000000000000000000000000000000008152600401611da190612ccb565b60405180910390fd5b5b50565b6000611e10826040518060400160405280602081526020017f5361666545524332303a206c6f772d6c6576656c2063616c6c206661696c65648152508573ffffffffffffffffffffffffffffffffffffffff16611eaf9092919063ffffffff16565b9050600081511115611e705780806020019051810190611e309190612268565b611e6f576040517f08c379a0000000000000000000000000000000000000000000000000000000008152600401611e6690612d8b565b60405180910390fd5b5b505050565b60008383834630604051602001611e90959493929190612a23565b6040516020818303038152906040528051906020012090509392505050565b6060611ebe8484600085611ec7565b90509392505050565b606082471015611f0c576040517f08c379a0000000000000000000000000000000000000000000000000000000008152600401611f0390612c6b565b60405180910390fd5b611f1585611648565b611f54576040517f08c379a0000000000000000000000000000000000000000000000000000000008152600401611f4b90612d6b565b60405180910390fd5b6000808673ffffffffffffffffffffffffffffffffffffffff168587604051611f7d91906128e1565b60006040518083038185875af1925050503d8060008114611fba576040519150601f19603f3d011682016040523d82523d6000602084013e611fbf565b606091505b5091509150611fcf828286611fdb565b92505050949350505050565b60608315611feb5782905061203b565b600083511115611ffe5782518084602001fd5b816040517f08c379a00000000000000000000000000000000000000000000000000000000081526004016120329190612b29565b60405180910390fd5b9392505050565b60008135905061205181613682565b92915050565b60008083601f84011261206d5761206c6130bb565b5b8235905067ffffffffffffffff81111561208a576120896130b6565b5b6020830191508360208202830111156120a6576120a56130c0565b5b9250929050565b60008083601f8401126120c3576120c26130bb565b5b8235905067ffffffffffffffff8111156120e0576120df6130b6565b5b6020830191508360208202830111156120fc576120fb6130c0565b5b9250929050565b60008151905061211281613699565b92915050565b600081359050612127816136b0565b92915050565b60008135905061213c816136c7565b92915050565b600081519050612151816136c7565b92915050565b600081359050612166816136de565b92915050565b600060208284031215612182576121816130cf565b5b600061219084828501612042565b91505092915050565b60008060008060008060008060c0898b0312156121b9576121b86130cf565b5b600089013567ffffffffffffffff8111156121d7576121d66130c5565b5b6121e38b828c01612057565b9850985050602089013567ffffffffffffffff811115612206576122056130c5565b5b6122128b828c016120ad565b965096505060406122258b828c0161212d565b94505060606122368b828c01612157565b93505060806122478b828c01612118565b92505060a06122588b828c01612118565b9150509295985092959890939650565b60006020828403121561227e5761227d6130cf565b5b600061228c84828501612103565b91505092915050565b6000602082840312156122ab576122aa6130cf565b5b60006122b98482850161212d565b91505092915050565b6000602082840312156122d8576122d76130cf565b5b60006122e684828501612142565b91505092915050565b60006122fb838361231f565b60208301905092915050565b6000612313838361233d565b60208301905092915050565b61232881612eff565b82525050565b61233781612eff565b82525050565b61234681612eff565b82525050565b60006123588385612e33565b935061236382612e06565b8060005b8581101561239c576123798284612e92565b61238388826122ef565b975061238e83612e26565b925050600181019050612367565b5085925050509392505050565b60006123b58385612e44565b93506123c082612e06565b8060005b858110156123f9576123d68284612e92565b6123e08882612307565b97506123eb83612e26565b9250506001810190506123c4565b5085925050509392505050565b60006124128385612e4f565b93507f07ffffffffffffffffffffffffffffffffffffffffffffffffffffffffffffff831115612445576124446130ca565b5b602083029250612456838584612f94565b82840190509392505050565b600061246e8385612e60565b93507f07ffffffffffffffffffffffffffffffffffffffffffffffffffffffffffffff8311156124a1576124a06130ca565b5b6020830292506124b2838584612f94565b82840190509392505050565b6124c781612f11565b82525050565b6124d681612f1d565b82525050565b6124ed6124e882612f1d565b61301f565b82525050565b60006124fe82612e10565b6125088185612e6b565b9350612518818560208601612fa3565b80840191505092915050565b61252d81612f5e565b82525050565b600061253e82612e1b565b6125488185612e76565b9350612558818560208601612fa3565b612561816130d4565b840191505092915050565b6000612579601883612e76565b9150612584826130e5565b602082019050919050565b600061259c602883612e76565b91506125a78261310e565b604082019050919050565b60006125bf601183612e76565b91506125ca8261315d565b602082019050919050565b60006125e2601f83612e76565b91506125ed82613186565b602082019050919050565b6000612605602683612e76565b9150612610826131af565b604082019050919050565b6000612628602483612e76565b9150612633826131fe565b604082019050919050565b600061264b600283612e87565b91506126568261324d565b600282019050919050565b600061266e603a83612e76565b915061267982613276565b604082019050919050565b6000612691602283612e76565b915061269c826132c5565b604082019050919050565b60006126b4601d83612e76565b91506126bf82613314565b602082019050919050565b60006126d7602683612e76565b91506126e28261333d565b604082019050919050565b60006126fa601d83612e76565b91506127058261338c565b602082019050919050565b600061271d603183612e76565b9150612728826133b5565b604082019050919050565b6000612740602283612e76565b915061274b82613404565b604082019050919050565b6000612763602383612e76565b915061276e82613453565b604082019050919050565b6000612786602083612e76565b9150612791826134a2565b602082019050919050565b60006127a9602483612e76565b91506127b4826134cb565b604082019050919050565b60006127cc602783612e76565b91506127d78261351a565b604082019050919050565b60006127ef600083612e6b565b91506127fa82613569565b600082019050919050565b6000612812601d83612e76565b915061281d8261356c565b602082019050919050565b6000612835602a83612e76565b915061284082613595565b604082019050919050565b6000612858602283612e76565b9150612863826135e4565b604082019050919050565b600061287b602c83612e76565b915061288682613633565b604082019050919050565b61289a81612f47565b82525050565b6128a981612f51565b82525050565b60006128bc8284866123a9565b91508190509392505050565b60006128d5828486612462565b91508190509392505050565b60006128ed82846124f3565b915081905092915050565b60006129038261263e565b915061290f82856124dc565b60208201915061291f82846124dc565b6020820191508190509392505050565b600061293a826127e2565b9150819050919050565b6000602082019050612959600083018461232e565b92915050565b6000606082019050612974600083018661232e565b612981602083018561232e565b61298e6040830184612891565b949350505050565b60006040820190506129ab600083018561232e565b6129b86020830184612891565b9392505050565b600060608201905081810360008301526129da81878961234c565b905081810360208301526129ef818587612406565b90506129fe6040830184612891565b9695505050505050565b6000602082019050612a1d60008301846124cd565b92915050565b600060a082019050612a3860008301886124cd565b612a4560208301876124cd565b612a5260408301866124cd565b612a5f6060830185612891565b612a6c608083018461232e565b9695505050505050565b600060a082019050612a8b60008301886124cd565b612a9860208301876124cd565b612aa56040830186612891565b612ab260608301856124cd565b612abf60808301846124be565b9695505050505050565b6000608082019050612ade60008301876124cd565b612aeb60208301866128a0565b612af860408301856124cd565b612b0560608301846124cd565b95945050505050565b6000602082019050612b236000830184612524565b92915050565b60006020820190508181036000830152612b438184612533565b905092915050565b60006020820190508181036000830152612b648161256c565b9050919050565b60006020820190508181036000830152612b848161258f565b9050919050565b60006020820190508181036000830152612ba4816125b2565b9050919050565b60006020820190508181036000830152612bc4816125d5565b9050919050565b60006020820190508181036000830152612be4816125f8565b9050919050565b60006020820190508181036000830152612c048161261b565b9050919050565b60006020820190508181036000830152612c2481612661565b9050919050565b60006020820190508181036000830152612c4481612684565b9050919050565b60006020820190508181036000830152612c64816126a7565b9050919050565b60006020820190508181036000830152612c84816126ca565b9050919050565b60006020820190508181036000830152612ca4816126ed565b9050919050565b60006020820190508181036000830152612cc481612710565b9050919050565b60006020820190508181036000830152612ce481612733565b9050919050565b60006020820190508181036000830152612d0481612756565b9050919050565b60006020820190508181036000830152612d2481612779565b9050919050565b60006020820190508181036000830152612d448161279c565b9050919050565b60006020820190508181036000830152612d64816127bf565b9050919050565b60006020820190508181036000830152612d8481612805565b9050919050565b60006020820190508181036000830152612da481612828565b9050919050565b60006020820190508181036000830152612dc48161284b565b9050919050565b60006020820190508181036000830152612de48161286e565b9050919050565b6000602082019050612e006000830184612891565b92915050565b6000819050919050565b600081519050919050565b600081519050919050565b6000602082019050919050565b600082825260208201905092915050565b600081905092915050565b600082825260208201905092915050565b600081905092915050565b600081905092915050565b600082825260208201905092915050565b600081905092915050565b6000612ea16020840184612042565b905092915050565b6000612eb482612f47565b9150612ebf83612f47565b9250827fffffffffffffffffffffffffffffffffffffffffffffffffffffffffffffffff03821115612ef457612ef3613029565b5b828201905092915050565b6000612f0a82612f27565b9050919050565b60008115159050919050565b6000819050919050565b600073ffffffffffffffffffffffffffffffffffffffff82169050919050565b6000819050919050565b600060ff82169050919050565b6000612f6982612f70565b9050919050565b6000612f7b82612f82565b9050919050565b6000612f8d82612f27565b9050919050565b82818337600083830152505050565b60005b83811015612fc1578082015181840152602081019050612fa6565b83811115612fd0576000848401525b50505050565b6000612fe182612f47565b91507fffffffffffffffffffffffffffffffffffffffffffffffffffffffffffffffff82141561301457613013613029565b5b600182019050919050565b6000819050919050565b7f4e487b7100000000000000000000000000000000000000000000000000000000600052601160045260246000fd5b7f4e487b7100000000000000000000000000000000000000000000000000000000600052602160045260246000fd5b7f4e487b7100000000000000000000000000000000000000000000000000000000600052603260045260246000fd5b600080fd5b600080fd5b600080fd5b600080fd5b600080fd5b600080fd5b6000601f19601f8301169050919050565b7f45434453413a20696e76616c6964207369676e61747572650000000000000000600082015250565b7f4572726f72203a204e6f20617661696c6162616c6520746f6b656e7320746f2060008201527f7769746864726177000000000000000000000000000000000000000000000000602082015250565b7f696e76616c6964207369676e6174757265000000000000000000000000000000600082015250565b7f45434453413a20696e76616c6964207369676e6174757265206c656e67746800600082015250565b7f4f776e61626c653a206e6577206f776e657220697320746865207a65726f206160008201527f6464726573730000000000000000000000000000000000000000000000000000602082015250565b7f4572726f72203a20617272617973206861766520646966666572656e74206c6560008201527f6e67746800000000000000000000000000000000000000000000000000000000602082015250565b7f1901000000000000000000000000000000000000000000000000000000000000600082015250565b7f416464726573733a20756e61626c6520746f2073656e642076616c75652c207260008201527f6563697069656e74206d61792068617665207265766572746564000000000000602082015250565b7f45434453413a20696e76616c6964207369676e6174757265202773272076616c60008201527f7565000000000000000000000000000000000000000000000000000000000000602082015250565b7f416464726573733a20696e73756666696369656e742062616c616e6365000000600082015250565b7f416464726573733a20696e73756666696369656e742062616c616e636520666f60008201527f722063616c6c0000000000000000000000000000000000000000000000000000602082015250565b7f4572726f72203a2027416d6f756e7427202c20657175616c20746f2030000000600082015250565b7f4572726f72203a20496e636f72726563742061646472657373202c206f6e6c7960008201527f20636f6e74726163742061646472657373000000000000000000000000000000602082015250565b7f45434453413a20696e76616c6964207369676e6174757265202776272076616c60008201527f7565000000000000000000000000000000000000000000000000000000000000602082015250565b7f4572726f72203a204e6f20617661696c61626c6520657468657220746f20636c60008201527f61696d0000000000000000000000000000000000000000000000000000000000602082015250565b7f4f776e61626c653a2063616c6c6572206973206e6f7420746865206f776e6572600082015250565b7f4572726f72203a204e6f20617661696c61626c6520746f6b656e7320746f206360008201527f6c61696d00000000000000000000000000000000000000000000000000000000602082015250565b7f4572726f72203a204e6f20617661696c6162616c6520657468657220746f207760008201527f6974686472617700000000000000000000000000000000000000000000000000602082015250565b50565b7f416464726573733a2063616c6c20746f206e6f6e2d636f6e7472616374000000600082015250565b7f5361666545524332303a204552433230206f7065726174696f6e20646964206e60008201527f6f74207375636365656400000000000000000000000000000000000000000000602082015250565b7f4572726f72203a207369676e6564207472616e73616374696f6e20657870697260008201527f6564000000000000000000000000000000000000000000000000000000000000602082015250565b7f4572726f72203a27726563657069656e74735f27206f722027616d6f756e745f60008201527f2720657175616c20746f20300000000000000000000000000000000000000000602082015250565b61368b81612eff565b811461369657600080fd5b50565b6136a281612f11565b81146136ad57600080fd5b50565b6136b981612f1d565b81146136c457600080fd5b50565b6136d081612f47565b81146136db57600080fd5b50565b6136e781612f51565b81146136f257600080fd5b5056fea2646970667358221220b8a127c4f2b8953d0cea5923e412921b07bbd410c680aeebec678b46cbd8927964736f6c63430008070033",
  "immutableReferences": {
    "1339": [
      {
        "length": 32,
        "start": 6658
      }
    ],
    "1341": [
      {
        "length": 32,
        "start": 6617
      }
    ],
    "1343": [
      {
        "length": 32,
        "start": 6531
      }
    ],
    "1345": [
      {
        "length": 32,
        "start": 6734
      }
    ],
    "1347": [
      {
        "length": 32,
        "start": 6767
      }
    ],
    "1349": [
      {
        "length": 32,
        "start": 6701
      }
    ]
  },
  "source": "// SPDX-License-Identifier: MIT\n\npragma solidity 0.8.7;\n\nimport \"@openzeppelin/contracts/token/ERC20/IERC20.sol\";\nimport \"@openzeppelin/contracts/utils/cryptography/draft-EIP712.sol\";\nimport \"@openzeppelin/contracts/utils/Address.sol\";\nimport \"@openzeppelin/contracts/access/Ownable.sol\";\nimport \"@openzeppelin/contracts/token/ERC20/utils/SafeERC20.sol\";\nimport \"../interfaces/IAirDrop.sol\";\n\n/**\n * @title AirDrop\n * @author ZaniInc\n * @notice This smart contract is for send free tokens to loyal\n * members of crypto-project\n */\ncontract AirDrop is EIP712, IAirDrop, Ownable {\n    using SafeERC20 for IERC20;\n    using Address for address;\n\n    /**\n     * @dev Store balances of members\n     * @return amounts of available tokens & ether\n     */\n    mapping(address => uint256) public balanceOfTokens;\n    mapping(address => uint256) public balanceOfEther;\n\n    /**\n     * @dev Use for sign message with EIP712 standart\n     * @notice 'DROP_HASH' is signature of primaryType 'Drop'\n     */\n    bytes32 public constant DROP_HASH =\n        keccak256(\"Drop(uint256[] amount,uint256 deadline,address[] recepient,bool ether)\");\n\n    IERC20 public token;\n\n    /**\n     * @dev Set 'token' IERC20 to interact with thrid party token\n     *\n     * Put address to state variable '_owner'\n     *\n     * @param token_ - of ERC20 contract\n     */\n    constructor(address token_) EIP712(\"AirDrop\", \"1\") {\n        Address.isContract(token_);\n        token = IERC20(token_);\n    }\n\n    /**\n     * @dev send ERC20 tokens from 'owner_' balance to SC\n     *\n     * @param amount_ - how many tokens deposits\n     *\n     * NOTE : this function use wrapper of safeERC20 library\n     * check 'SafeERC20.sol' for more information\n     */\n    function depositTokens(uint256 amount_) external override onlyOwner {\n        require(amount_ != 0, \"Error : 'Amount' , equal to 0\");\n        token.safeTransferFrom(msg.sender, address(this), amount_);\n        emit DepositTokens(amount_);\n    }\n\n    /**\n     * @dev send ethers from 'owner_' balance to SC\n     *\n     * NOTE : if you send ether to 0 address , ethers will be blocked.\n     */\n    function depositEther() external payable override onlyOwner {\n        require(msg.value != 0, \"Error : 'Amount' , equal to 0\");\n        emit DepositEther(msg.value);\n    }\n\n    /**\n     * @dev make tokens available for members to withdraw\n     *\n     * @param recepients_ - address of member\n     * @param amount_ - how many tokens will be available\n     * @param deadline_ - how long signature will be valid\n     * @param v_ - can be only 27 or 28\n     * @param r_ - contain info to recover signer\n     * @param s_ - contain info to recover signer\n     *\n     * NOTE : more information 'EIP712'\n     */\n    function dropTokens(\n        address[] calldata recepients_,\n        uint256[] calldata amount_,\n        uint256 deadline_,\n        uint8 v_,\n        bytes32 r_,\n        bytes32 s_\n    ) external override onlyOwner {\n        require(\n            recepients_.length == amount_.length ,\n            \"Error : arrays have different length\"\n        );\n        bytes32 structHash = keccak256(\n            abi.encode(DROP_HASH, keccak256(abi.encodePacked(amount_)), deadline_,keccak256(abi.encodePacked(recepients_)),false)\n        );\n        bytes32 digest = EIP712._hashTypedDataV4(structHash);\n\n        address msgSigner = ECDSA.recover(digest, v_, r_, s_);\n        require(msg.sender == msgSigner, \"invalid signature\");\n        require(\n            block.timestamp < deadline_,\n            \"Error : signed transaction expired\"\n        );\n\n        for (uint256 i; i < recepients_.length; i++) {\n            require(\n                amount_[i] != 0 && recepients_[i] != address(0),\n                \"Error :'recepients_' or 'amount_' equal to 0\"\n            );\n            balanceOfTokens[recepients_[i]] += amount_[i];\n        }\n        emit DropTokens(recepients_, amount_, deadline_);\n    }\n\n    /**\n     * @dev make ethers available for members to withdraw\n     *\n     * @param recepients_ - address of member\n     * @param amount_ - how many ethers will be available\n     * @param deadline_ - how long signature will be valid\n     * @param v_ - can be only 27 or 28\n     * @param r_ - contain info to recover signer\n     * @param s_ - contain info to recover signer\n     *\n     * NOTE : more information 'EIP712'\n     */\n    function dropEther(\n        address[] calldata recepients_,\n        uint256[] calldata amount_,\n        uint256 deadline_,\n        uint8 v_,\n        bytes32 r_,\n        bytes32 s_\n    ) external override onlyOwner {\n        require(\n            recepients_.length == amount_.length ,\n            \"Error : arrays have different length\"\n        );\n        bytes32 structHash = keccak256(\n            abi.encode(DROP_HASH, keccak256(abi.encodePacked(amount_)), deadline_,keccak256(abi.encodePacked(recepients_)),true)\n        );\n        bytes32 digest = EIP712._hashTypedDataV4(structHash);\n\n        address msgSigner = ECDSA.recover(digest, v_, r_, s_);\n        require(msg.sender == msgSigner, \"invalid signature\");\n        require(\n            block.timestamp < deadline_,\n            \"Error : signed transaction expired\"\n        );\n        for (uint256 i; i < recepients_.length; i++) {\n            require(\n                amount_[i] != 0 && recepients_[i] != address(0),\n                \"Error :'recepients_' or 'amount_' equal to 0\"\n            );\n            balanceOfEther[recepients_[i]] += amount_[i];\n        }\n        emit DropEther(recepients_, amount_, deadline_);\n    }\n\n    /**\n     * @dev Change actually ERC20\n     *\n     * @param token_ - address of new ERC20 which connected\n     * to 'this' contract\n     */\n    function updateTokenAddress(address token_) external override onlyOwner {\n        require(Address.isContract(token_) == true,\"Error : Incorrect address , only contract address\");\n        token = IERC20(token_);\n        emit NewContractAddress(token_);\n    }\n\n    /**\n     * @dev This function return tokens to 'owner'\n     *\n     * NOTE: withdraw all available tokens\n     */\n    function withdrawTokens() external override onlyOwner {\n        uint256 balance = token.balanceOf(address(this));\n        require(balance > 0, \"Error : No availabale tokens to withdraw\");\n        token.safeTransfer(msg.sender, balance);\n        emit WithdrawTokens(msg.sender, balance);\n    }\n\n    /**\n     * @dev This function return ether to 'owner'\n     *\n     * NOTE: withdraw all available ether\n     */\n    function withdrawEther() external override onlyOwner {\n        require(\n            address(this).balance > 0,\n            \"Error : No availabale ether to withdraw\"\n        );\n        uint256 value = address(this).balance;\n        Address.sendValue(payable(msg.sender), address(this).balance);\n        emit WithdrawEther(msg.sender, value);\n    }\n\n    /**\n     * @dev allows to claim available tokens\n     * to the member\n     *\n     * NOTE: withdraw all available tokens , you can call\n     * this function only if you have available tokens\n     */\n    function claimToken() external override {\n        address member = msg.sender;\n        uint256 balance = balanceOfTokens[member];\n        require(balance > 0, \"Error : No available tokens to claim\");\n        balanceOfTokens[member] = 0;\n        token.safeTransfer(member, balance);\n        emit ClaimToken(member, balance);\n    }\n\n    /**\n     * @dev allows to claim available ether\n     * to the member\n     *\n     * NOTE: withdraw all available ether , you can call\n     * this function only if you have available ether\n     */\n    function claimEther() external override {\n        address member = msg.sender;\n        uint256 balance = balanceOfEther[member];\n        require(balance > 0, \"Error : No available ether to claim\");\n        balanceOfEther[member] = 0;\n        Address.sendValue(payable(member), balance);\n        emit ClaimEther(member, balance);\n    }\n}\n",
  "sourcePath": "/Users/pavel/SecondTaskZanozin/contracts/AirDrop.sol",
  "compiler": {
    "name": "solc",
    "version": "0.8.7+commit.e28d00a7.Emscripten.clang"
  },
  "schemaVersion": "3.4.7",
  "updatedAt": "2022-06-28T15:42:59.180Z",
  "devdoc": {
    "author": "ZaniInc",
    "kind": "dev",
    "methods": {
      "claimEther()": {
        "details": "allows to claim available ether to the member NOTE: withdraw all available ether , you can call this function only if you have available ether"
      },
      "claimToken()": {
        "details": "allows to claim available tokens to the member NOTE: withdraw all available tokens , you can call this function only if you have available tokens"
      },
      "constructor": {
        "details": "Set 'token' IERC20 to interact with thrid party token Put address to state variable '_owner'",
        "params": {
          "token_": "- of ERC20 contract"
        }
      },
      "depositEther()": {
        "details": "send ethers from 'owner_' balance to SC NOTE : if you send ether to 0 address , ethers will be blocked."
      },
      "depositTokens(uint256)": {
        "details": "send ERC20 tokens from 'owner_' balance to SC",
        "params": {
          "amount_": "- how many tokens deposits NOTE : this function use wrapper of safeERC20 library check 'SafeERC20.sol' for more information"
        }
      },
      "dropEther(address[],uint256[],uint256,uint8,bytes32,bytes32)": {
        "details": "make ethers available for members to withdraw",
        "params": {
          "amount_": "- how many ethers will be available",
          "deadline_": "- how long signature will be valid",
          "r_": "- contain info to recover signer",
          "recepients_": "- address of member",
          "s_": "- contain info to recover signer NOTE : more information 'EIP712'",
          "v_": "- can be only 27 or 28"
        }
      },
      "dropTokens(address[],uint256[],uint256,uint8,bytes32,bytes32)": {
        "details": "make tokens available for members to withdraw",
        "params": {
          "amount_": "- how many tokens will be available",
          "deadline_": "- how long signature will be valid",
          "r_": "- contain info to recover signer",
          "recepients_": "- address of member",
          "s_": "- contain info to recover signer NOTE : more information 'EIP712'",
          "v_": "- can be only 27 or 28"
        }
      },
      "owner()": {
        "details": "Returns the address of the current owner."
      },
      "renounceOwnership()": {
        "details": "Leaves the contract without owner. It will not be possible to call `onlyOwner` functions anymore. Can only be called by the current owner. NOTE: Renouncing ownership will leave the contract without an owner, thereby removing any functionality that is only available to the owner."
      },
      "transferOwnership(address)": {
        "details": "Transfers ownership of the contract to a new account (`newOwner`). Can only be called by the current owner."
      },
      "updateTokenAddress(address)": {
        "details": "Change actually ERC20",
        "params": {
          "token_": "- address of new ERC20 which connected to 'this' contract"
        }
      },
      "withdrawEther()": {
        "details": "This function return ether to 'owner' NOTE: withdraw all available ether"
      },
      "withdrawTokens()": {
        "details": "This function return tokens to 'owner' NOTE: withdraw all available tokens"
      }
    },
    "stateVariables": {
      "DROP_HASH": {
        "details": "Use for sign message with EIP712 standart"
      },
      "balanceOfTokens": {
        "details": "Store balances of members",
        "return": "amounts of available tokens & ether",
        "returns": {
          "_0": "amounts of available tokens & ether"
        }
      }
    },
    "title": "AirDrop",
    "version": 1
  },
  "userdoc": {
    "events": {
      "ClaimEther(address,uint256)": {
        "notice": "used in function 'claimEther'"
      },
      "ClaimToken(address,uint256)": {
        "notice": "used in function 'claimToken'"
      },
      "DepositEther(uint256)": {
        "notice": "used in function 'depositEther'"
      },
      "DepositTokens(uint256)": {
        "notice": "used in function 'depositTokens'"
      },
      "DropEther(address[],uint256[],uint256)": {
        "notice": "used in function 'dropEther'"
      },
      "DropTokens(address[],uint256[],uint256)": {
        "notice": "used in function 'dropTokens'"
      },
      "NewContractAddress(address)": {
        "notice": "used in function 'updateTokenAddress'"
      },
      "WithdrawEther(address,uint256)": {
        "notice": "used in function 'withdrawEther'"
      },
      "WithdrawTokens(address,uint256)": {
        "notice": "used in function 'withdrawTokens'"
      }
    },
    "kind": "user",
    "methods": {
      "DROP_HASH()": {
        "notice": "'DROP_HASH' is signature of primaryType 'Drop'"
      }
    },
    "notice": "This smart contract is for send free tokens to loyal members of crypto-project",
    "version": 1
  }
}